{
  "_format": "hh-sol-artifact-1",
  "contractName": "EduMeta",
  "sourceName": "Contracts/EduMetaCoinErc20.sol",
  "abi": [
    {
      "inputs": [
        {
          "internalType": "address",
          "name": "initialOwner",
          "type": "address"
        }
      ],
      "stateMutability": "nonpayable",
      "type": "constructor"
    },
    {
      "inputs": [],
      "name": "ECDSAInvalidSignature",
      "type": "error"
    },
    {
      "inputs": [
        {
          "internalType": "uint256",
          "name": "length",
          "type": "uint256"
        }
      ],
      "name": "ECDSAInvalidSignatureLength",
      "type": "error"
    },
    {
      "inputs": [
        {
          "internalType": "bytes32",
          "name": "s",
          "type": "bytes32"
        }
      ],
      "name": "ECDSAInvalidSignatureS",
      "type": "error"
    },
    {
      "inputs": [
        {
          "internalType": "address",
          "name": "spender",
          "type": "address"
        },
        {
          "internalType": "uint256",
          "name": "value",
          "type": "uint256"
        }
      ],
      "name": "ERC1363ApproveFailed",
      "type": "error"
    },
    {
      "inputs": [
        {
          "internalType": "address",
          "name": "receiver",
          "type": "address"
        }
      ],
      "name": "ERC1363InvalidReceiver",
      "type": "error"
    },
    {
      "inputs": [
        {
          "internalType": "address",
          "name": "spender",
          "type": "address"
        }
      ],
      "name": "ERC1363InvalidSpender",
      "type": "error"
    },
    {
      "inputs": [
        {
          "internalType": "address",
          "name": "receiver",
          "type": "address"
        },
        {
          "internalType": "uint256",
          "name": "value",
          "type": "uint256"
        }
      ],
      "name": "ERC1363TransferFailed",
      "type": "error"
    },
    {
      "inputs": [
        {
          "internalType": "address",
          "name": "sender",
          "type": "address"
        },
        {
          "internalType": "address",
          "name": "receiver",
          "type": "address"
        },
        {
          "internalType": "uint256",
          "name": "value",
          "type": "uint256"
        }
      ],
      "name": "ERC1363TransferFromFailed",
      "type": "error"
    },
    {
      "inputs": [
        {
          "internalType": "address",
          "name": "spender",
          "type": "address"
        },
        {
          "internalType": "uint256",
          "name": "allowance",
          "type": "uint256"
        },
        {
          "internalType": "uint256",
          "name": "needed",
          "type": "uint256"
        }
      ],
      "name": "ERC20InsufficientAllowance",
      "type": "error"
    },
    {
      "inputs": [
        {
          "internalType": "address",
          "name": "sender",
          "type": "address"
        },
        {
          "internalType": "uint256",
          "name": "balance",
          "type": "uint256"
        },
        {
          "internalType": "uint256",
          "name": "needed",
          "type": "uint256"
        }
      ],
      "name": "ERC20InsufficientBalance",
      "type": "error"
    },
    {
      "inputs": [
        {
          "internalType": "address",
          "name": "approver",
          "type": "address"
        }
      ],
      "name": "ERC20InvalidApprover",
      "type": "error"
    },
    {
      "inputs": [
        {
          "internalType": "address",
          "name": "receiver",
          "type": "address"
        }
      ],
      "name": "ERC20InvalidReceiver",
      "type": "error"
    },
    {
      "inputs": [
        {
          "internalType": "address",
          "name": "sender",
          "type": "address"
        }
      ],
      "name": "ERC20InvalidSender",
      "type": "error"
    },
    {
      "inputs": [
        {
          "internalType": "address",
          "name": "spender",
          "type": "address"
        }
      ],
      "name": "ERC20InvalidSpender",
      "type": "error"
    },
    {
      "inputs": [
        {
          "internalType": "uint256",
          "name": "deadline",
          "type": "uint256"
        }
      ],
      "name": "ERC2612ExpiredSignature",
      "type": "error"
    },
    {
      "inputs": [
        {
          "internalType": "address",
          "name": "signer",
          "type": "address"
        },
        {
          "internalType": "address",
          "name": "owner",
          "type": "address"
        }
      ],
      "name": "ERC2612InvalidSigner",
      "type": "error"
    },
    {
      "inputs": [
        {
          "internalType": "uint256",
          "name": "maxLoan",
          "type": "uint256"
        }
      ],
      "name": "ERC3156ExceededMaxLoan",
      "type": "error"
    },
    {
      "inputs": [
        {
          "internalType": "address",
          "name": "receiver",
          "type": "address"
        }
      ],
      "name": "ERC3156InvalidReceiver",
      "type": "error"
    },
    {
      "inputs": [
        {
          "internalType": "address",
          "name": "token",
          "type": "address"
        }
      ],
      "name": "ERC3156UnsupportedToken",
      "type": "error"
    },
    {
      "inputs": [],
      "name": "EnforcedPause",
      "type": "error"
    },
    {
      "inputs": [],
      "name": "ExpectedPause",
      "type": "error"
    },
    {
      "inputs": [
        {
          "internalType": "address",
          "name": "account",
          "type": "address"
        },
        {
          "internalType": "uint256",
          "name": "currentNonce",
          "type": "uint256"
        }
      ],
      "name": "InvalidAccountNonce",
      "type": "error"
    },
    {
      "inputs": [],
      "name": "InvalidShortString",
      "type": "error"
    },
    {
      "inputs": [
        {
          "internalType": "address",
          "name": "owner",
          "type": "address"
        }
      ],
      "name": "OwnableInvalidOwner",
      "type": "error"
    },
    {
      "inputs": [
        {
          "internalType": "address",
          "name": "account",
          "type": "address"
        }
      ],
      "name": "OwnableUnauthorizedAccount",
      "type": "error"
    },
    {
      "inputs": [
        {
          "internalType": "string",
          "name": "str",
          "type": "string"
        }
      ],
      "name": "StringTooLong",
      "type": "error"
    },
    {
      "anonymous": false,
      "inputs": [
        {
          "indexed": true,
          "internalType": "address",
          "name": "owner",
          "type": "address"
        },
        {
          "indexed": true,
          "internalType": "address",
          "name": "spender",
          "type": "address"
        },
        {
          "indexed": false,
          "internalType": "uint256",
          "name": "value",
          "type": "uint256"
        }
      ],
      "name": "Approval",
      "type": "event"
    },
    {
      "anonymous": false,
      "inputs": [],
      "name": "EIP712DomainChanged",
      "type": "event"
    },
    {
      "anonymous": false,
      "inputs": [
        {
          "indexed": true,
          "internalType": "address",
          "name": "previousOwner",
          "type": "address"
        },
        {
          "indexed": true,
          "internalType": "address",
          "name": "newOwner",
          "type": "address"
        }
      ],
      "name": "OwnershipTransferred",
      "type": "event"
    },
    {
      "anonymous": false,
      "inputs": [
        {
          "indexed": false,
          "internalType": "address",
          "name": "account",
          "type": "address"
        }
      ],
      "name": "Paused",
      "type": "event"
    },
    {
      "anonymous": false,
      "inputs": [
        {
          "indexed": true,
          "internalType": "address",
          "name": "from",
          "type": "address"
        },
        {
          "indexed": true,
          "internalType": "address",
          "name": "to",
          "type": "address"
        },
        {
          "indexed": false,
          "internalType": "uint256",
          "name": "value",
          "type": "uint256"
        }
      ],
      "name": "Transfer",
      "type": "event"
    },
    {
      "anonymous": false,
      "inputs": [
        {
          "indexed": false,
          "internalType": "address",
          "name": "account",
          "type": "address"
        }
      ],
      "name": "Unpaused",
      "type": "event"
    },
    {
      "inputs": [],
      "name": "DOMAIN_SEPARATOR",
      "outputs": [
        {
          "internalType": "bytes32",
          "name": "",
          "type": "bytes32"
        }
      ],
      "stateMutability": "view",
      "type": "function"
    },
    {
      "inputs": [
        {
          "internalType": "address",
          "name": "owner",
          "type": "address"
        },
        {
          "internalType": "address",
          "name": "spender",
          "type": "address"
        }
      ],
      "name": "allowance",
      "outputs": [
        {
          "internalType": "uint256",
          "name": "",
          "type": "uint256"
        }
      ],
      "stateMutability": "view",
      "type": "function"
    },
    {
      "inputs": [
        {
          "internalType": "address",
          "name": "spender",
          "type": "address"
        },
        {
          "internalType": "uint256",
          "name": "value",
          "type": "uint256"
        }
      ],
      "name": "approve",
      "outputs": [
        {
          "internalType": "bool",
          "name": "",
          "type": "bool"
        }
      ],
      "stateMutability": "nonpayable",
      "type": "function"
    },
    {
      "inputs": [
        {
          "internalType": "address",
          "name": "spender",
          "type": "address"
        },
        {
          "internalType": "uint256",
          "name": "value",
          "type": "uint256"
        }
      ],
      "name": "approveAndCall",
      "outputs": [
        {
          "internalType": "bool",
          "name": "",
          "type": "bool"
        }
      ],
      "stateMutability": "nonpayable",
      "type": "function"
    },
    {
      "inputs": [
        {
          "internalType": "address",
          "name": "spender",
          "type": "address"
        },
        {
          "internalType": "uint256",
          "name": "value",
          "type": "uint256"
        },
        {
          "internalType": "bytes",
          "name": "data",
          "type": "bytes"
        }
      ],
      "name": "approveAndCall",
      "outputs": [
        {
          "internalType": "bool",
          "name": "",
          "type": "bool"
        }
      ],
      "stateMutability": "nonpayable",
      "type": "function"
    },
    {
      "inputs": [
        {
          "internalType": "address",
          "name": "account",
          "type": "address"
        }
      ],
      "name": "balanceOf",
      "outputs": [
        {
          "internalType": "uint256",
          "name": "",
          "type": "uint256"
        }
      ],
      "stateMutability": "view",
      "type": "function"
    },
    {
      "inputs": [
        {
          "internalType": "uint256",
          "name": "value",
          "type": "uint256"
        }
      ],
      "name": "burn",
      "outputs": [],
      "stateMutability": "nonpayable",
      "type": "function"
    },
    {
      "inputs": [
        {
          "internalType": "address",
          "name": "account",
          "type": "address"
        },
        {
          "internalType": "uint256",
          "name": "value",
          "type": "uint256"
        }
      ],
      "name": "burnFrom",
      "outputs": [],
      "stateMutability": "nonpayable",
      "type": "function"
    },
    {
      "inputs": [],
      "name": "decimals",
      "outputs": [
        {
          "internalType": "uint8",
          "name": "",
          "type": "uint8"
        }
      ],
      "stateMutability": "view",
      "type": "function"
    },
    {
      "inputs": [],
      "name": "eip712Domain",
      "outputs": [
        {
          "internalType": "bytes1",
          "name": "fields",
          "type": "bytes1"
        },
        {
          "internalType": "string",
          "name": "name",
          "type": "string"
        },
        {
          "internalType": "string",
          "name": "version",
          "type": "string"
        },
        {
          "internalType": "uint256",
          "name": "chainId",
          "type": "uint256"
        },
        {
          "internalType": "address",
          "name": "verifyingContract",
          "type": "address"
        },
        {
          "internalType": "bytes32",
          "name": "salt",
          "type": "bytes32"
        },
        {
          "internalType": "uint256[]",
          "name": "extensions",
          "type": "uint256[]"
        }
      ],
      "stateMutability": "view",
      "type": "function"
    },
    {
      "inputs": [
        {
          "internalType": "address",
          "name": "token",
          "type": "address"
        },
        {
          "internalType": "uint256",
          "name": "value",
          "type": "uint256"
        }
      ],
      "name": "flashFee",
      "outputs": [
        {
          "internalType": "uint256",
          "name": "",
          "type": "uint256"
        }
      ],
      "stateMutability": "view",
      "type": "function"
    },
    {
      "inputs": [
        {
          "internalType": "contract IERC3156FlashBorrower",
          "name": "receiver",
          "type": "address"
        },
        {
          "internalType": "address",
          "name": "token",
          "type": "address"
        },
        {
          "internalType": "uint256",
          "name": "value",
          "type": "uint256"
        },
        {
          "internalType": "bytes",
          "name": "data",
          "type": "bytes"
        }
      ],
      "name": "flashLoan",
      "outputs": [
        {
          "internalType": "bool",
          "name": "",
          "type": "bool"
        }
      ],
      "stateMutability": "nonpayable",
      "type": "function"
    },
    {
      "inputs": [
        {
          "internalType": "address",
          "name": "token",
          "type": "address"
        }
      ],
      "name": "maxFlashLoan",
      "outputs": [
        {
          "internalType": "uint256",
          "name": "",
          "type": "uint256"
        }
      ],
      "stateMutability": "view",
      "type": "function"
    },
    {
      "inputs": [
        {
          "internalType": "address",
          "name": "to",
          "type": "address"
        },
        {
          "internalType": "uint256",
          "name": "amount",
          "type": "uint256"
        }
      ],
      "name": "mint",
      "outputs": [],
      "stateMutability": "nonpayable",
      "type": "function"
    },
    {
      "inputs": [],
      "name": "name",
      "outputs": [
        {
          "internalType": "string",
          "name": "",
          "type": "string"
        }
      ],
      "stateMutability": "view",
      "type": "function"
    },
    {
      "inputs": [
        {
          "internalType": "address",
          "name": "owner",
          "type": "address"
        }
      ],
      "name": "nonces",
      "outputs": [
        {
          "internalType": "uint256",
          "name": "",
          "type": "uint256"
        }
      ],
      "stateMutability": "view",
      "type": "function"
    },
    {
      "inputs": [],
      "name": "owner",
      "outputs": [
        {
          "internalType": "address",
          "name": "",
          "type": "address"
        }
      ],
      "stateMutability": "view",
      "type": "function"
    },
    {
      "inputs": [],
      "name": "pause",
      "outputs": [],
      "stateMutability": "nonpayable",
      "type": "function"
    },
    {
      "inputs": [],
      "name": "paused",
      "outputs": [
        {
          "internalType": "bool",
          "name": "",
          "type": "bool"
        }
      ],
      "stateMutability": "view",
      "type": "function"
    },
    {
      "inputs": [
        {
          "internalType": "address",
          "name": "owner",
          "type": "address"
        },
        {
          "internalType": "address",
          "name": "spender",
          "type": "address"
        },
        {
          "internalType": "uint256",
          "name": "value",
          "type": "uint256"
        },
        {
          "internalType": "uint256",
          "name": "deadline",
          "type": "uint256"
        },
        {
          "internalType": "uint8",
          "name": "v",
          "type": "uint8"
        },
        {
          "internalType": "bytes32",
          "name": "r",
          "type": "bytes32"
        },
        {
          "internalType": "bytes32",
          "name": "s",
          "type": "bytes32"
        }
      ],
      "name": "permit",
      "outputs": [],
      "stateMutability": "nonpayable",
      "type": "function"
    },
    {
      "inputs": [],
      "name": "renounceOwnership",
      "outputs": [],
      "stateMutability": "nonpayable",
      "type": "function"
    },
    {
      "inputs": [
        {
          "internalType": "bytes4",
          "name": "interfaceId",
          "type": "bytes4"
        }
      ],
      "name": "supportsInterface",
      "outputs": [
        {
          "internalType": "bool",
          "name": "",
          "type": "bool"
        }
      ],
      "stateMutability": "view",
      "type": "function"
    },
    {
      "inputs": [],
      "name": "symbol",
      "outputs": [
        {
          "internalType": "string",
          "name": "",
          "type": "string"
        }
      ],
      "stateMutability": "view",
      "type": "function"
    },
    {
      "inputs": [],
      "name": "totalSupply",
      "outputs": [
        {
          "internalType": "uint256",
          "name": "",
          "type": "uint256"
        }
      ],
      "stateMutability": "view",
      "type": "function"
    },
    {
      "inputs": [
        {
          "internalType": "address",
          "name": "to",
          "type": "address"
        },
        {
          "internalType": "uint256",
          "name": "value",
          "type": "uint256"
        }
      ],
      "name": "transfer",
      "outputs": [
        {
          "internalType": "bool",
          "name": "",
          "type": "bool"
        }
      ],
      "stateMutability": "nonpayable",
      "type": "function"
    },
    {
      "inputs": [
        {
          "internalType": "address",
          "name": "to",
          "type": "address"
        },
        {
          "internalType": "uint256",
          "name": "value",
          "type": "uint256"
        }
      ],
      "name": "transferAndCall",
      "outputs": [
        {
          "internalType": "bool",
          "name": "",
          "type": "bool"
        }
      ],
      "stateMutability": "nonpayable",
      "type": "function"
    },
    {
      "inputs": [
        {
          "internalType": "address",
          "name": "to",
          "type": "address"
        },
        {
          "internalType": "uint256",
          "name": "value",
          "type": "uint256"
        },
        {
          "internalType": "bytes",
          "name": "data",
          "type": "bytes"
        }
      ],
      "name": "transferAndCall",
      "outputs": [
        {
          "internalType": "bool",
          "name": "",
          "type": "bool"
        }
      ],
      "stateMutability": "nonpayable",
      "type": "function"
    },
    {
      "inputs": [
        {
          "internalType": "address",
          "name": "from",
          "type": "address"
        },
        {
          "internalType": "address",
          "name": "to",
          "type": "address"
        },
        {
          "internalType": "uint256",
          "name": "value",
          "type": "uint256"
        }
      ],
      "name": "transferFrom",
      "outputs": [
        {
          "internalType": "bool",
          "name": "",
          "type": "bool"
        }
      ],
      "stateMutability": "nonpayable",
      "type": "function"
    },
    {
      "inputs": [
        {
          "internalType": "address",
          "name": "from",
          "type": "address"
        },
        {
          "internalType": "address",
          "name": "to",
          "type": "address"
        },
        {
          "internalType": "uint256",
          "name": "value",
          "type": "uint256"
        },
        {
          "internalType": "bytes",
          "name": "data",
          "type": "bytes"
        }
      ],
      "name": "transferFromAndCall",
      "outputs": [
        {
          "internalType": "bool",
          "name": "",
          "type": "bool"
        }
      ],
      "stateMutability": "nonpayable",
      "type": "function"
    },
    {
      "inputs": [
        {
          "internalType": "address",
          "name": "from",
          "type": "address"
        },
        {
          "internalType": "address",
          "name": "to",
          "type": "address"
        },
        {
          "internalType": "uint256",
          "name": "value",
          "type": "uint256"
        }
      ],
      "name": "transferFromAndCall",
      "outputs": [
        {
          "internalType": "bool",
          "name": "",
          "type": "bool"
        }
      ],
      "stateMutability": "nonpayable",
      "type": "function"
    },
    {
      "inputs": [
        {
          "internalType": "address",
          "name": "newOwner",
          "type": "address"
        }
      ],
      "name": "transferOwnership",
      "outputs": [],
      "stateMutability": "nonpayable",
      "type": "function"
    },
    {
      "inputs": [],
      "name": "unpause",
      "outputs": [],
      "stateMutability": "nonpayable",
      "type": "function"
    }
  ],
  "bytecode": "0x61016060405234801561001157600080fd5b5060405161223638038061223683398101604081905261003091610283565b604051806040016040528060078152602001664564754d65746160c81b81525080604051806040016040528060018152602001603160f81b81525083604051806040016040528060078152602001664564754d65746160c81b8152506040518060400160405280600381526020016211511560ea1b81525081600390816100b79190610352565b5060046100c48282610352565b5050506001600160a01b0381166100f657604051631e4fbdf760e01b8152600060048201526024015b60405180910390fd5b6100ff816101b8565b5061010b826006610212565b6101205261011a816007610212565b61014052815160208084019190912060e052815190820120610100524660a0526101a760e05161010051604080517f8b73c3c69bb8fe3d512ecc4cf759cc79239f7b179b0ffacaa9a75d522b39400f60208201529081019290925260608201524660808201523060a082015260009060c00160405160208183030381529060405280519060200120905090565b60805250503060c052506104829050565b600580546001600160a01b03838116610100818102610100600160a81b031985161790945560405193909204169182907f8be0079c531659141344cd1fd0a4f28419497f9722a3daafe3b4186f6b6457e090600090a35050565b600060208351101561022e5761022783610245565b905061023f565b816102398482610352565b5060ff90505b92915050565b600080829050601f81511115610270578260405163305a27a960e01b81526004016100ed9190610410565b805161027b8261045e565b179392505050565b60006020828403121561029557600080fd5b81516001600160a01b03811681146102ac57600080fd5b9392505050565b634e487b7160e01b600052604160045260246000fd5b600181811c908216806102dd57607f821691505b6020821081036102fd57634e487b7160e01b600052602260045260246000fd5b50919050565b601f82111561034d57806000526020600020601f840160051c8101602085101561032a5750805b601f840160051c820191505b8181101561034a5760008155600101610336565b50505b505050565b81516001600160401b0381111561036b5761036b6102b3565b61037f8161037984546102c9565b84610303565b6020601f8211600181146103b3576000831561039b5750848201515b600019600385901b1c1916600184901b17845561034a565b600084815260208120601f198516915b828110156103e357878501518255602094850194600190920191016103c3565b50848210156104015786840151600019600387901b60f8161c191681555b50505050600190811b01905550565b602081526000825180602084015260005b8181101561043e5760208186018101516040868401015201610421565b506000604082850101526040601f19601f83011684010191505092915050565b805160208083015191908110156102fd5760001960209190910360031b1b16919050565b60805160a05160c05160e051610100516101205161014051611d5a6104dc60003960006110480152600061101b01526000610cea01526000610cc201526000610c1d01526000610c4701526000610c710152611d5a6000f3fe608060405234801561001057600080fd5b50600436106101f05760003560e01c806370a082311161010f578063a9059cbb116100a2578063d8fbe99411610071578063d8fbe99414610412578063d9d98ce414610425578063dd62ed3e14610438578063f2fde38b1461047157600080fd5b8063a9059cbb146103c6578063c1d34b89146103d9578063cae9ca51146103ec578063d505accf146103ff57600080fd5b80638456cb59116100de5780638456cb591461037257806384b0196e1461037a5780638da5cb5b1461039557806395d89b41146103be57600080fd5b806370a082311461031b578063715018a61461034457806379cc67901461034c5780637ecebe001461035f57600080fd5b80633644e5151161018757806342966c681161015657806342966c68146102d75780635c975abb146102ea5780635cffe9de146102f5578063613255ab1461030857600080fd5b80633644e5151461029f5780633f4ba83a146102a75780634000aea0146102b157806340c10f19146102c457600080fd5b806318160ddd116101c357806318160ddd1461025857806323b872dd1461026a578063313ce5671461027d5780633177029f1461028c57600080fd5b806301ffc9a7146101f557806306fdde031461021d578063095ea7b3146102325780631296ee6214610245575b600080fd5b61020861020336600461171b565b610484565b60405190151581526020015b60405180910390f35b6102256104bb565b604051610214919061177e565b6102086102403660046117a6565b61054d565b6102086102533660046117a6565b610565565b6002545b604051908152602001610214565b6102086102783660046117d2565b610588565b60405160128152602001610214565b61020861029a3660046117a6565b6105ac565b61025c6105c8565b6102af6105d7565b005b6102086102bf3660046118b8565b6105e9565b6102af6102d23660046117a6565b610636565b6102af6102e5366004611911565b61064c565b60055460ff16610208565b61020861030336600461192a565b610659565b61025c6103163660046119cb565b6107d1565b61025c6103293660046119cb565b6001600160a01b031660009081526020819052604090205490565b6102af6107f9565b6102af61035a3660046117a6565b61080b565b61025c61036d3660046119cb565b610820565b6102af61083e565b61038261084e565b60405161021497969594939291906119e8565b60055461010090046001600160a01b03166040516001600160a01b039091168152602001610214565b610225610894565b6102086103d43660046117a6565b6108a3565b6102086103e7366004611a80565b6108b1565b6102086103fa3660046118b8565b610902565b6102af61040d366004611aec565b610949565b6102086104203660046117d2565b610a83565b61025c6104333660046117a6565b610aa8565b61025c610446366004611b63565b6001600160a01b03918216600090815260016020908152604080832093909416825291909152205490565b6102af61047f3660046119cb565b610ae5565b60006001600160e01b0319821663b0202a1160e01b14806104b557506301ffc9a760e01b6001600160e01b03198316145b92915050565b6060600380546104ca90611b9c565b80601f01602080910402602001604051908101604052809291908181526020018280546104f690611b9c565b80156105435780601f1061051857610100808354040283529160200191610543565b820191906000526020600020905b81548152906001019060200180831161052657829003601f168201915b5050505050905090565b60003361055b818585610b20565b5060019392505050565b60006105818383604051806020016040528060008152506105e9565b9392505050565b600033610596858285610b32565b6105a1858585610bb1565b506001949350505050565b6000610581838360405180602001604052806000815250610902565b60006105d2610c10565b905090565b6105df610d3b565b6105e7610d6e565b565b60006105f584846108a3565b6106295760405163118d81d760e11b81526001600160a01b0385166004820152602481018490526044015b60405180910390fd5b61055b3333868686610dc0565b61063e610d3b565b6106488282610f11565b5050565b6106563382610f47565b50565b600080610665866107d1565b90508085111561068b5760405163fd9a760960e01b815260048101829052602401610620565b60006106978787610aa8565b90506106a38887610f11565b6040516323e30c8b60e01b81527f439148f0bbc682ca079e46d6e2c2f0c1e3b820f1a291b069d8882abf8cf18dd9906001600160a01b038a16906323e30c8b906106fb9033908c908c9088908d908d90600401611bd6565b6020604051808303816000875af115801561071a573d6000803e3d6000fd5b505050506040513d601f19601f8201168201806040525081019061073e9190611c2f565b146107665760405162678c5b60e81b81526001600160a01b0389166004820152602401610620565b600061077c8930610777858b611c5e565b610b32565b81158061079057506001600160a01b038116155b156107ad576107a8896107a3848a611c5e565b610f47565b6107c2565b6107b78988610f47565b6107c2898284610bb1565b50600198975050505050505050565b60006001600160a01b03821630146107ea5760006104b5565b6002546104b590600019611c71565b610801610d3b565b6105e76000610f7d565b610816823383610b32565b6106488282610f47565b6001600160a01b0381166000908152600860205260408120546104b5565b610846610d3b565b6105e7610fd7565b600060608060008060006060610862611014565b61086a611041565b60408051600080825260208201909252600f60f81b9b939a50919850469750309650945092509050565b6060600480546104ca90611b9c565b60003361055b818585610bb1565b60006108be858585610588565b6108f557604051635ab42af360e11b81526001600160a01b0380871660048301528516602482015260448101849052606401610620565b6105a13386868686610dc0565b600061090e848461054d565b61093d57604051631439557160e21b81526001600160a01b038516600482015260248101849052604401610620565b61055b3385858561106e565b8342111561096d5760405163313c898160e11b815260048101859052602401610620565b60007f6e71edae12b1b97f4d1f60370fef10105fa2faae0126114a169c64845d6126c98888886109ba8c6001600160a01b0316600090815260086020526040902080546001810190915590565b6040805160208101969096526001600160a01b0394851690860152929091166060840152608083015260a082015260c0810186905260e0016040516020818303038152906040528051906020012090506000610a15826111ac565b90506000610a25828787876111d9565b9050896001600160a01b0316816001600160a01b031614610a6c576040516325c0072360e11b81526001600160a01b0380831660048301528b166024820152604401610620565b610a778a8a8a610b20565b50505050505050505050565b6000610aa0848484604051806020016040528060008152506108b1565b949350505050565b60006001600160a01b0383163014610ade57604051635ad3edc960e11b81526001600160a01b0384166004820152602401610620565b6000610581565b610aed610d3b565b6001600160a01b038116610b1757604051631e4fbdf760e01b815260006004820152602401610620565b61065681610f7d565b610b2d8383836001611207565b505050565b6001600160a01b03838116600090815260016020908152604080832093861683529290522054600019811015610bab5781811015610b9c57604051637dc7a0d960e11b81526001600160a01b03841660048201526024810182905260448101839052606401610620565b610bab84848484036000611207565b50505050565b6001600160a01b038316610bdb57604051634b637e8f60e11b815260006004820152602401610620565b6001600160a01b038216610c055760405163ec442f0560e01b815260006004820152602401610620565b610b2d8383836112dc565b6000306001600160a01b037f000000000000000000000000000000000000000000000000000000000000000016148015610c6957507f000000000000000000000000000000000000000000000000000000000000000046145b15610c9357507f000000000000000000000000000000000000000000000000000000000000000090565b6105d2604080517f8b73c3c69bb8fe3d512ecc4cf759cc79239f7b179b0ffacaa9a75d522b39400f60208201527f0000000000000000000000000000000000000000000000000000000000000000918101919091527f000000000000000000000000000000000000000000000000000000000000000060608201524660808201523060a082015260009060c00160405160208183030381529060405280519060200120905090565b6005546001600160a01b036101009091041633146105e75760405163118cdaa760e01b8152336004820152602401610620565b610d766112e7565b6005805460ff191690557f5db9ee0a495bf2e6ff9c91a7834c1ba4fdd244a5e8aa4e537bd38aeae4b073aa335b6040516001600160a01b03909116815260200160405180910390a1565b826001600160a01b03163b600003610df6576040516322a5b36760e21b81526001600160a01b0384166004820152602401610620565b604051632229f29760e21b81526001600160a01b038416906388a7ca5c90610e28908890889087908790600401611c84565b6020604051808303816000875af1925050508015610e63575060408051601f3d908101601f19168201909252610e6091810190611cc1565b60015b610ecc573d808015610e91576040519150601f19603f3d011682016040523d82523d6000602084013e610e96565b606091505b508051600003610ec4576040516322a5b36760e21b81526001600160a01b0385166004820152602401610620565b805160208201fd5b6001600160e01b03198116632229f29760e21b14610f08576040516322a5b36760e21b81526001600160a01b0385166004820152602401610620565b505b5050505050565b6001600160a01b038216610f3b5760405163ec442f0560e01b815260006004820152602401610620565b610648600083836112dc565b6001600160a01b038216610f7157604051634b637e8f60e11b815260006004820152602401610620565b610648826000836112dc565b600580546001600160a01b03838116610100818102610100600160a81b031985161790945560405193909204169182907f8be0079c531659141344cd1fd0a4f28419497f9722a3daafe3b4186f6b6457e090600090a35050565b610fdf61130a565b6005805460ff191660011790557f62e78cea01bee320cd4e420270b5ea74000d11b0c9f74754ebdbfc544b05a258610da33390565b60606105d27f0000000000000000000000000000000000000000000000000000000000000000600661132e565b60606105d27f0000000000000000000000000000000000000000000000000000000000000000600761132e565b826001600160a01b03163b6000036110a45760405163deb6d3ed60e01b81526001600160a01b0384166004820152602401610620565b6040516307b04a2d60e41b81526001600160a01b03841690637b04a2d0906110d490879086908690600401611cde565b6020604051808303816000875af192505050801561110f575060408051601f3d908101601f1916820190925261110c91810190611cc1565b60015b611170573d80801561113d576040519150601f19603f3d011682016040523d82523d6000602084013e611142565b606091505b508051600003610ec45760405163deb6d3ed60e01b81526001600160a01b0385166004820152602401610620565b6001600160e01b031981166307b04a2d60e41b14610f0a5760405163deb6d3ed60e01b81526001600160a01b0385166004820152602401610620565b60006104b56111b9610c10565b8360405161190160f01b8152600281019290925260228201526042902090565b6000806000806111eb888888886113d9565b9250925092506111fb82826114a8565b50909695505050505050565b6001600160a01b0384166112315760405163e602df0560e01b815260006004820152602401610620565b6001600160a01b03831661125b57604051634a1406b160e11b815260006004820152602401610620565b6001600160a01b0380851660009081526001602090815260408083209387168352929052208290558015610bab57826001600160a01b0316846001600160a01b03167f8c5be1e5ebec7d5bd14f71427d1e84f3dd0314c0f7b2291e5b200ac8c7c3b925846040516112ce91815260200190565b60405180910390a350505050565b610b2d838383611561565b60055460ff166105e757604051638dfc202b60e01b815260040160405180910390fd5b60055460ff16156105e75760405163d93c066560e01b815260040160405180910390fd5b606060ff83146113485761134183611574565b90506104b5565b81805461135490611b9c565b80601f016020809104026020016040519081016040528092919081815260200182805461138090611b9c565b80156113cd5780601f106113a2576101008083540402835291602001916113cd565b820191906000526020600020905b8154815290600101906020018083116113b057829003601f168201915b505050505090506104b5565b600080807f7fffffffffffffffffffffffffffffff5d576e7357a4501ddfe92f46681b20a0841115611414575060009150600390508261149e565b604080516000808252602082018084528a905260ff891692820192909252606081018790526080810186905260019060a0016020604051602081039080840390855afa158015611468573d6000803e3d6000fd5b5050604051601f1901519150506001600160a01b0381166114945750600092506001915082905061149e565b9250600091508190505b9450945094915050565b60008260038111156114bc576114bc611d0e565b036114c5575050565b60018260038111156114d9576114d9611d0e565b036114f75760405163f645eedf60e01b815260040160405180910390fd5b600282600381111561150b5761150b611d0e565b0361152c5760405163fce698f760e01b815260048101829052602401610620565b600382600381111561154057611540611d0e565b03610648576040516335e2f38360e21b815260048101829052602401610620565b61156961130a565b610b2d8383836115b3565b60606000611581836116dd565b604080516020808252818301909252919250600091906020820181803683375050509182525060208101929092525090565b6001600160a01b0383166115de5780600260008282546115d39190611c5e565b909155506116509050565b6001600160a01b038316600090815260208190526040902054818110156116315760405163391434e360e21b81526001600160a01b03851660048201526024810182905260448101839052606401610620565b6001600160a01b03841660009081526020819052604090209082900390555b6001600160a01b03821661166c5760028054829003905561168b565b6001600160a01b03821660009081526020819052604090208054820190555b816001600160a01b0316836001600160a01b03167fddf252ad1be2c89b69c2b068fc378daa952ba7f163c4a11628f55a4df523b3ef836040516116d091815260200190565b60405180910390a3505050565b600060ff8216601f8111156104b557604051632cd44ac360e21b815260040160405180910390fd5b6001600160e01b03198116811461065657600080fd5b60006020828403121561172d57600080fd5b813561058181611705565b6000815180845260005b8181101561175e57602081850181015186830182015201611742565b506000602082860101526020601f19601f83011685010191505092915050565b6020815260006105816020830184611738565b6001600160a01b038116811461065657600080fd5b600080604083850312156117b957600080fd5b82356117c481611791565b946020939093013593505050565b6000806000606084860312156117e757600080fd5b83356117f281611791565b9250602084013561180281611791565b929592945050506040919091013590565b634e487b7160e01b600052604160045260246000fd5b600082601f83011261183a57600080fd5b813567ffffffffffffffff81111561185457611854611813565b604051601f8201601f19908116603f0116810167ffffffffffffffff8111828210171561188357611883611813565b60405281815283820160200185101561189b57600080fd5b816020850160208301376000918101602001919091529392505050565b6000806000606084860312156118cd57600080fd5b83356118d881611791565b925060208401359150604084013567ffffffffffffffff8111156118fb57600080fd5b61190786828701611829565b9150509250925092565b60006020828403121561192357600080fd5b5035919050565b60008060008060006080868803121561194257600080fd5b853561194d81611791565b9450602086013561195d81611791565b935060408601359250606086013567ffffffffffffffff81111561198057600080fd5b8601601f8101881361199157600080fd5b803567ffffffffffffffff8111156119a857600080fd5b8860208284010111156119ba57600080fd5b959894975092955050506020019190565b6000602082840312156119dd57600080fd5b813561058181611791565b60ff60f81b8816815260e060208201526000611a0760e0830189611738565b8281036040840152611a198189611738565b606084018890526001600160a01b038716608085015260a0840186905283810360c08501528451808252602080870193509091019060005b81811015611a6f578351835260209384019390920191600101611a51565b50909b9a5050505050505050505050565b60008060008060808587031215611a9657600080fd5b8435611aa181611791565b93506020850135611ab181611791565b925060408501359150606085013567ffffffffffffffff811115611ad457600080fd5b611ae087828801611829565b91505092959194509250565b600080600080600080600060e0888a031215611b0757600080fd5b8735611b1281611791565b96506020880135611b2281611791565b95506040880135945060608801359350608088013560ff81168114611b4657600080fd5b9699959850939692959460a0840135945060c09093013592915050565b60008060408385031215611b7657600080fd5b8235611b8181611791565b91506020830135611b9181611791565b809150509250929050565b600181811c90821680611bb057607f821691505b602082108103611bd057634e487b7160e01b600052602260045260246000fd5b50919050565b6001600160a01b03878116825286166020820152604081018590526060810184905260a0608082018190528101829052818360c0830137600081830160c090810191909152601f909201601f1916010195945050505050565b600060208284031215611c4157600080fd5b5051919050565b634e487b7160e01b600052601160045260246000fd5b808201808211156104b5576104b5611c48565b818103818111156104b5576104b5611c48565b6001600160a01b0385811682528416602082015260408101839052608060608201819052600090611cb790830184611738565b9695505050505050565b600060208284031215611cd357600080fd5b815161058181611705565b60018060a01b0384168152826020820152606060408201526000611d056060830184611738565b95945050505050565b634e487b7160e01b600052602160045260246000fdfea26469706673582212209c705c481a4e3c62086335146cb4c414a085c8d3e9307ba708e02a0f7c2ae9ea64736f6c634300081b0033",
  "linkReferences": {},
  "deployedLinkReferences": {}
}